:0E0000001CC0FECFFDCF52C0FBCFFACFF9CF10
:10000E00F8CFF7CF9EC0003F7F00010001002D4EBC
:10001E00414E00494E4600000300700014000200DD
:10002E0004001800010076001A000000F894EE2774
:10003E00ECBBE5BFF8E1A4B7A77FA4BFF1BDE1BD5E
:10004E008DE0A2E0ED938A95E9F780E4A0E6ED93CA
:10005E008A95E9F7E6E2F0E0C8953196802DC895CD
:10006E003196902D0097B9F0C8953196A02DC89570
:10007E003196B02DC8953196102CC89531966E2FAD
:10008E007F2FF02DE12DC89531960D920197D9F75E
:10009E00E62FF72FE1CFEFE9EDBFC0E779C00A9267
:1000AE001A929A93AA93BA93EA93FA93EFB7EA93B2
:1000BE00E1E0F0E0AE0EBF1EE5E0F0E0EA15FB0574
:1000CE0029F5AA24BB24E1E0F0E08E0E9F1EE42D5C
:1000DE00F0E0309711F4C29A19C0E130A0E0FA07AF
:1000EE0049F4A82DB92DE8ECF0E0D6D0309709F4FC
:1000FE00B4D00CC0E230A0E0FA0741F4A82DB92D1F
:10010E00E4EFF1E0C9D0309709F4A7D0E8EEF3E0C0
:10011E008E169F0630F0E1E0F0E06E0E7F1E882412
:10012E009924E8E6F1E06E167F0608F0C49AE9918C
:10013E00EFBFF991E991B991A9919991199009900F
:10014E0018958A93AA93EA93FA93EFB7EA93E091FC
:10015E007500A3E7EE0FAE0FE4B1F5B1ED93FC938E
:10016E00A0917500AF5FA0937500A13018F0E0E08C
:10017E00E0937500E0917500ED5BE7B980E28A953A
:10018E00F1F7E991EFBFF991E991A991899118954C
:10019E00E0E8E6BDE0E0E6BDE8BBE7E1E7BBE3EFA4
:1001AE00EFBDE2E0E3BFE0E0E2BFE6BFE9BDEBBFDB
:1001BE00E5BFE2E0E9BFE0E8E8B9E0E0E3B9E4BBBF
:1001CE00E4B3E370E4BBA39AE3E4E7B9ECEAE6B97F
:1001DE00E3B1E87FE3B91A9A662477248824992438
:1001EE00AA24BB2478943ED0AD55B2402CD0F397C0
:1001FE0050F4552029F44394E2E0E41508F4442425
:10020E00E1E05E2E01C055242DD0A855B1401BD083
:10021E00F39738F4A0E7A40DEC91E6BF662477249B
:10022E0010C020D0AA5BB0400ED0F39738F4A0E7F0
:10023E00A40DEC91E9BD6624772403C0EFEFE6BF71
:10024E00E9BDD1CFFFCFBA93AA93E991F991309737
:10025E001AF4E095F09531960895E8B3A4E0EA27F4
:10026E00E8BB0895A0917300B09174000895002426
:10027E00112490E1AA0FBB1F001C111C0E1A1F0A9D
:10028E0018F40E0E1F1E01C0A1609A9599F7EA2F61
:10029E00FB2FA02DB12D0895EADFEA2FFB2F089535
:00000001FF
